{
  "_format": "hh-sol-artifact-1",
  "contractName": "Transaction",
  "sourceName": "contracts/Transaction.sol",
  "abi": [
    {
      "inputs": [],
      "stateMutability": "nonpayable",
      "type": "constructor"
    },
    {
      "anonymous": false,
      "inputs": [
        {
          "indexed": false,
          "internalType": "address",
          "name": "receiver",
          "type": "address"
        },
        {
          "indexed": false,
          "internalType": "address",
          "name": "sender",
          "type": "address"
        },
        {
          "indexed": false,
          "internalType": "uint256",
          "name": "amount",
          "type": "uint256"
        },
        {
          "indexed": false,
          "internalType": "string",
          "name": "message",
          "type": "string"
        },
        {
          "indexed": false,
          "internalType": "uint256",
          "name": "timeStamp",
          "type": "uint256"
        }
      ],
      "name": "Transfer",
      "type": "event"
    },
    {
      "inputs": [
        {
          "internalType": "uint256",
          "name": "amount",
          "type": "uint256"
        },
        {
          "internalType": "string",
          "name": "message",
          "type": "string"
        }
      ],
      "name": "addToBlockchain",
      "outputs": [],
      "stateMutability": "nonpayable",
      "type": "function"
    },
    {
      "inputs": [],
      "name": "getAllTransactions",
      "outputs": [
        {
          "components": [
            {
              "internalType": "address",
              "name": "receiver",
              "type": "address"
            },
            {
              "internalType": "address",
              "name": "sender",
              "type": "address"
            },
            {
              "internalType": "uint256",
              "name": "amount",
              "type": "uint256"
            },
            {
              "internalType": "string",
              "name": "message",
              "type": "string"
            },
            {
              "internalType": "uint256",
              "name": "time",
              "type": "uint256"
            }
          ],
          "internalType": "struct Transaction.TransactionList[]",
          "name": "",
          "type": "tuple[]"
        }
      ],
      "stateMutability": "view",
      "type": "function"
    },
    {
      "inputs": [],
      "name": "getTransactionCount",
      "outputs": [
        {
          "internalType": "uint256",
          "name": "",
          "type": "uint256"
        }
      ],
      "stateMutability": "view",
      "type": "function"
    },
    {
      "inputs": [],
      "name": "owner",
      "outputs": [
        {
          "internalType": "address",
          "name": "",
          "type": "address"
        }
      ],
      "stateMutability": "view",
      "type": "function"
    },
    {
      "inputs": [],
      "name": "transactionCount",
      "outputs": [
        {
          "internalType": "uint256",
          "name": "",
          "type": "uint256"
        }
      ],
      "stateMutability": "view",
      "type": "function"
    }
  ],
  "bytecode": "0x608060405234801561001057600080fd5b50336000806101000a81548173ffffffffffffffffffffffffffffffffffffffff021916908373ffffffffffffffffffffffffffffffffffffffff160217905550610b77806100606000396000f3fe608060405234801561001057600080fd5b50600436106100575760003560e01c806327506f531461005c5780632e7700f01461007a578063864826cf146100985780638da5cb5b146100b4578063b77bf600146100d2575b600080fd5b6100646100f0565b604051610071919061077d565b60405180910390f35b6100826102a1565b60405161008f91906107ae565b60405180910390f35b6100b260048036038101906100ad919061093e565b6102ab565b005b6100bc610485565b6040516100c991906109a9565b60405180910390f35b6100da6104a9565b6040516100e791906107ae565b60405180910390f35b60606002805480602002602001604051908101604052809291908181526020016000905b8282101561029857838290600052602060002090600502016040518060a00160405290816000820160009054906101000a900473ffffffffffffffffffffffffffffffffffffffff1673ffffffffffffffffffffffffffffffffffffffff1673ffffffffffffffffffffffffffffffffffffffff1681526020016001820160009054906101000a900473ffffffffffffffffffffffffffffffffffffffff1673ffffffffffffffffffffffffffffffffffffffff1673ffffffffffffffffffffffffffffffffffffffff168152602001600282015481526020016003820180546101fd906109f3565b80601f0160208091040260200160405190810160405280929190818152602001828054610229906109f3565b80156102765780601f1061024b57610100808354040283529160200191610276565b820191906000526020600020905b81548152906001019060200180831161025957829003601f168201915b5050505050815260200160048201548152505081526020019060010190610114565b50505050905090565b6000600154905090565b600160008154809291906102be90610a54565b919050555060026040518060a0016040528060008054906101000a900473ffffffffffffffffffffffffffffffffffffffff1673ffffffffffffffffffffffffffffffffffffffff1681526020013373ffffffffffffffffffffffffffffffffffffffff16815260200184815260200183815260200142815250908060018154018082558091505060019003906000526020600020906005020160009091909190915060008201518160000160006101000a81548173ffffffffffffffffffffffffffffffffffffffff021916908373ffffffffffffffffffffffffffffffffffffffff16021790555060208201518160010160006101000a81548173ffffffffffffffffffffffffffffffffffffffff021916908373ffffffffffffffffffffffffffffffffffffffff1602179055506040820151816002015560608201518160030190805190602001906104159291906104af565b506080820151816004015550507fc4b32d7ff75a51e487f3cbb5d3202f2efecca1f4c2b987e0039c1d3220b48a8360008054906101000a900473ffffffffffffffffffffffffffffffffffffffff1633848442604051610479959493929190610ae7565b60405180910390a15050565b60008054906101000a900473ffffffffffffffffffffffffffffffffffffffff1681565b60015481565b8280546104bb906109f3565b90600052602060002090601f0160209004810192826104dd5760008555610524565b82601f106104f657805160ff1916838001178555610524565b82800160010185558215610524579182015b82811115610523578251825591602001919060010190610508565b5b5090506105319190610535565b5090565b5b8082111561054e576000816000905550600101610536565b5090565b600081519050919050565b600082825260208201905092915050565b6000819050602082019050919050565b600073ffffffffffffffffffffffffffffffffffffffff82169050919050565b60006105a98261057e565b9050919050565b6105b98161059e565b82525050565b6000819050919050565b6105d2816105bf565b82525050565b600081519050919050565b600082825260208201905092915050565b60005b838110156106125780820151818401526020810190506105f7565b83811115610621576000848401525b50505050565b6000601f19601f8301169050919050565b6000610643826105d8565b61064d81856105e3565b935061065d8185602086016105f4565b61066681610627565b840191505092915050565b600060a08301600083015161068960008601826105b0565b50602083015161069c60208601826105b0565b5060408301516106af60408601826105c9565b50606083015184820360608601526106c78282610638565b91505060808301516106dc60808601826105c9565b508091505092915050565b60006106f38383610671565b905092915050565b6000602082019050919050565b600061071382610552565b61071d818561055d565b93508360208202850161072f8561056e565b8060005b8581101561076b578484038952815161074c85826106e7565b9450610757836106fb565b925060208a01995050600181019050610733565b50829750879550505050505092915050565b600060208201905081810360008301526107978184610708565b905092915050565b6107a8816105bf565b82525050565b60006020820190506107c3600083018461079f565b92915050565b6000604051905090565b600080fd5b600080fd5b6107e6816105bf565b81146107f157600080fd5b50565b600081359050610803816107dd565b92915050565b600080fd5b600080fd5b7f4e487b7100000000000000000000000000000000000000000000000000000000600052604160045260246000fd5b61084b82610627565b810181811067ffffffffffffffff8211171561086a57610869610813565b5b80604052505050565b600061087d6107c9565b90506108898282610842565b919050565b600067ffffffffffffffff8211156108a9576108a8610813565b5b6108b282610627565b9050602081019050919050565b82818337600083830152505050565b60006108e16108dc8461088e565b610873565b9050828152602081018484840111156108fd576108fc61080e565b5b6109088482856108bf565b509392505050565b600082601f83011261092557610924610809565b5b81356109358482602086016108ce565b91505092915050565b60008060408385031215610955576109546107d3565b5b6000610963858286016107f4565b925050602083013567ffffffffffffffff811115610984576109836107d8565b5b61099085828601610910565b9150509250929050565b6109a38161059e565b82525050565b60006020820190506109be600083018461099a565b92915050565b7f4e487b7100000000000000000000000000000000000000000000000000000000600052602260045260246000fd5b60006002820490506001821680610a0b57607f821691505b60208210811415610a1f57610a1e6109c4565b5b50919050565b7f4e487b7100000000000000000000000000000000000000000000000000000000600052601160045260246000fd5b6000610a5f826105bf565b91507fffffffffffffffffffffffffffffffffffffffffffffffffffffffffffffffff821415610a9257610a91610a25565b5b600182019050919050565b600082825260208201905092915050565b6000610ab9826105d8565b610ac38185610a9d565b9350610ad38185602086016105f4565b610adc81610627565b840191505092915050565b600060a082019050610afc600083018861099a565b610b09602083018761099a565b610b16604083018661079f565b8181036060830152610b288185610aae565b9050610b37608083018461079f565b969550505050505056fea264697066735822122098c241f0ce159af6f108c9541908834db62778135197b866be611ec9f697393064736f6c63430008090033",
  "linkReferences": {},
  "deployedLinkReferences": {}
}